{
  "_format": "hh-sol-artifact-1",
  "contractName": "NFT",
  "sourceName": "contracts/NFT.sol",
  "abi": [
    {
      "inputs": [
        {
          "internalType": "address",
          "name": "marketplaceAddress",
          "type": "address"
        }
      ],
      "stateMutability": "nonpayable",
      "type": "constructor"
    },
    {
      "anonymous": false,
      "inputs": [
        {
          "indexed": true,
          "internalType": "address",
          "name": "owner",
          "type": "address"
        },
        {
          "indexed": true,
          "internalType": "address",
          "name": "approved",
          "type": "address"
        },
        {
          "indexed": true,
          "internalType": "uint256",
          "name": "tokenId",
          "type": "uint256"
        }
      ],
      "name": "Approval",
      "type": "event"
    },
    {
      "anonymous": false,
      "inputs": [
        {
          "indexed": true,
          "internalType": "address",
          "name": "owner",
          "type": "address"
        },
        {
          "indexed": true,
          "internalType": "address",
          "name": "operator",
          "type": "address"
        },
        {
          "indexed": false,
          "internalType": "bool",
          "name": "approved",
          "type": "bool"
        }
      ],
      "name": "ApprovalForAll",
      "type": "event"
    },
    {
      "anonymous": false,
      "inputs": [
        {
          "indexed": true,
          "internalType": "address",
          "name": "from",
          "type": "address"
        },
        {
          "indexed": true,
          "internalType": "address",
          "name": "to",
          "type": "address"
        },
        {
          "indexed": true,
          "internalType": "uint256",
          "name": "tokenId",
          "type": "uint256"
        }
      ],
      "name": "Transfer",
      "type": "event"
    },
    {
      "inputs": [
        {
          "internalType": "address",
          "name": "to",
          "type": "address"
        },
        {
          "internalType": "uint256",
          "name": "tokenId",
          "type": "uint256"
        }
      ],
      "name": "approve",
      "outputs": [],
      "stateMutability": "nonpayable",
      "type": "function"
    },
    {
      "inputs": [
        {
          "internalType": "address",
          "name": "owner",
          "type": "address"
        }
      ],
      "name": "balanceOf",
      "outputs": [
        {
          "internalType": "uint256",
          "name": "",
          "type": "uint256"
        }
      ],
      "stateMutability": "view",
      "type": "function"
    },
    {
      "inputs": [
        {
          "internalType": "string",
          "name": "tokenURI",
          "type": "string"
        }
      ],
      "name": "createToken",
      "outputs": [
        {
          "internalType": "uint256",
          "name": "",
          "type": "uint256"
        }
      ],
      "stateMutability": "nonpayable",
      "type": "function"
    },
    {
      "inputs": [
        {
          "internalType": "uint256",
          "name": "tokenId",
          "type": "uint256"
        }
      ],
      "name": "getApproved",
      "outputs": [
        {
          "internalType": "address",
          "name": "",
          "type": "address"
        }
      ],
      "stateMutability": "view",
      "type": "function"
    },
    {
      "inputs": [
        {
          "internalType": "address",
          "name": "owner",
          "type": "address"
        },
        {
          "internalType": "address",
          "name": "operator",
          "type": "address"
        }
      ],
      "name": "isApprovedForAll",
      "outputs": [
        {
          "internalType": "bool",
          "name": "",
          "type": "bool"
        }
      ],
      "stateMutability": "view",
      "type": "function"
    },
    {
      "inputs": [],
      "name": "name",
      "outputs": [
        {
          "internalType": "string",
          "name": "",
          "type": "string"
        }
      ],
      "stateMutability": "view",
      "type": "function"
    },
    {
      "inputs": [
        {
          "internalType": "uint256",
          "name": "tokenId",
          "type": "uint256"
        }
      ],
      "name": "ownerOf",
      "outputs": [
        {
          "internalType": "address",
          "name": "",
          "type": "address"
        }
      ],
      "stateMutability": "view",
      "type": "function"
    },
    {
      "inputs": [
        {
          "internalType": "address",
          "name": "from",
          "type": "address"
        },
        {
          "internalType": "address",
          "name": "to",
          "type": "address"
        },
        {
          "internalType": "uint256",
          "name": "tokenId",
          "type": "uint256"
        }
      ],
      "name": "safeTransferFrom",
      "outputs": [],
      "stateMutability": "nonpayable",
      "type": "function"
    },
    {
      "inputs": [
        {
          "internalType": "address",
          "name": "from",
          "type": "address"
        },
        {
          "internalType": "address",
          "name": "to",
          "type": "address"
        },
        {
          "internalType": "uint256",
          "name": "tokenId",
          "type": "uint256"
        },
        {
          "internalType": "bytes",
          "name": "_data",
          "type": "bytes"
        }
      ],
      "name": "safeTransferFrom",
      "outputs": [],
      "stateMutability": "nonpayable",
      "type": "function"
    },
    {
      "inputs": [
        {
          "internalType": "address",
          "name": "operator",
          "type": "address"
        },
        {
          "internalType": "bool",
          "name": "approved",
          "type": "bool"
        }
      ],
      "name": "setApprovalForAll",
      "outputs": [],
      "stateMutability": "nonpayable",
      "type": "function"
    },
    {
      "inputs": [
        {
          "internalType": "bytes4",
          "name": "interfaceId",
          "type": "bytes4"
        }
      ],
      "name": "supportsInterface",
      "outputs": [
        {
          "internalType": "bool",
          "name": "",
          "type": "bool"
        }
      ],
      "stateMutability": "view",
      "type": "function"
    },
    {
      "inputs": [],
      "name": "symbol",
      "outputs": [
        {
          "internalType": "string",
          "name": "",
          "type": "string"
        }
      ],
      "stateMutability": "view",
      "type": "function"
    },
    {
      "inputs": [
        {
          "internalType": "uint256",
          "name": "tokenId",
          "type": "uint256"
        }
      ],
      "name": "tokenURI",
      "outputs": [
        {
          "internalType": "string",
          "name": "",
          "type": "string"
        }
      ],
      "stateMutability": "view",
      "type": "function"
    },
    {
      "inputs": [
        {
          "internalType": "address",
          "name": "from",
          "type": "address"
        },
        {
          "internalType": "address",
          "name": "to",
          "type": "address"
        },
        {
          "internalType": "uint256",
          "name": "tokenId",
          "type": "uint256"
        }
      ],
      "name": "transferFrom",
      "outputs": [],
      "stateMutability": "nonpayable",
      "type": "function"
    },
    {
      "inputs": [
        {
          "internalType": "string",
          "name": "tokenURI",
          "type": "string"
        },
        {
          "internalType": "uint256",
          "name": "tokenId",
          "type": "uint256"
        }
      ],
      "name": "updateTokenURI",
      "outputs": [
        {
          "internalType": "uint256",
          "name": "",
          "type": "uint256"
        }
      ],
      "stateMutability": "nonpayable",
      "type": "function"
    }
  ],
  "bytecode": "0x60806040523480156200001157600080fd5b5060405162002efe38038062002efe8339818101604052810190620000379190620001e6565b6040518060400160405280601081526020017f4d657461766572736520546f6b656e73000000000000000000000000000000008152506040518060400160405280600481526020017f4d455454000000000000000000000000000000000000000000000000000000008152508160009080519060200190620000bb9291906200011f565b508060019080519060200190620000d49291906200011f565b50505080600860006101000a81548173ffffffffffffffffffffffffffffffffffffffff021916908373ffffffffffffffffffffffffffffffffffffffff16021790555050620002c5565b8280546200012d9062000246565b90600052602060002090601f0160209004810192826200015157600085556200019d565b82601f106200016c57805160ff19168380011785556200019d565b828001600101855582156200019d579182015b828111156200019c5782518255916020019190600101906200017f565b5b509050620001ac9190620001b0565b5090565b5b80821115620001cb576000816000905550600101620001b1565b5090565b600081519050620001e081620002ab565b92915050565b600060208284031215620001f957600080fd5b60006200020984828501620001cf565b91505092915050565b60006200021f8262000226565b9050919050565b600073ffffffffffffffffffffffffffffffffffffffff82169050919050565b600060028204905060018216806200025f57607f821691505b602082108114156200027657620002756200027c565b5b50919050565b7f4e487b7100000000000000000000000000000000000000000000000000000000600052602260045260246000fd5b620002b68162000212565b8114620002c257600080fd5b50565b612c2980620002d56000396000f3fe608060405234801561001057600080fd5b50600436106100f55760003560e01c80636352211e11610097578063a22cb46511610066578063a22cb465146102aa578063b88d4fde146102c6578063c87b56dd146102e2578063e985e9c514610312576100f5565b80636352211e146101fc57806370a082311461022c57806395d89b411461025c578063a06c794a1461027a576100f5565b8063095ea7b3116100d3578063095ea7b31461017857806323b872dd1461019457806342842e0e146101b057806345576f94146101cc576100f5565b806301ffc9a7146100fa57806306fdde031461012a578063081812fc14610148575b600080fd5b610114600480360381019061010f9190611c41565b610342565b60405161012191906120dc565b60405180910390f35b610132610424565b60405161013f91906120f7565b60405180910390f35b610162600480360381019061015d9190611d28565b6104b6565b60405161016f9190612075565b60405180910390f35b610192600480360381019061018d9190611c05565b61053b565b005b6101ae60048036038101906101a99190611aff565b610653565b005b6101ca60048036038101906101c59190611aff565b6106b3565b005b6101e660048036038101906101e19190611c93565b6106d3565b6040516101f39190612319565b60405180910390f35b61021660048036038101906102119190611d28565b610737565b6040516102239190612075565b60405180910390f35b61024660048036038101906102419190611a9a565b6107e9565b6040516102539190612319565b60405180910390f35b6102646108a1565b60405161027191906120f7565b60405180910390f35b610294600480360381019061028f9190611cd4565b610933565b6040516102a19190612319565b60405180910390f35b6102c460048036038101906102bf9190611bc9565b610948565b005b6102e060048036038101906102db9190611b4e565b610ac9565b005b6102fc60048036038101906102f79190611d28565b610b2b565b60405161030991906120f7565b60405180910390f35b61032c60048036038101906103279190611ac3565b610c7d565b60405161033991906120dc565b60405180910390f35b60007f80ac58cd000000000000000000000000000000000000000000000000000000007bffffffffffffffffffffffffffffffffffffffffffffffffffffffff1916827bffffffffffffffffffffffffffffffffffffffffffffffffffffffff1916148061040d57507f5b5e139f000000000000000000000000000000000000000000000000000000007bffffffffffffffffffffffffffffffffffffffffffffffffffffffff1916827bffffffffffffffffffffffffffffffffffffffffffffffffffffffff1916145b8061041d575061041c82610d11565b5b9050919050565b6060600080546104339061256f565b80601f016020809104026020016040519081016040528092919081815260200182805461045f9061256f565b80156104ac5780601f10610481576101008083540402835291602001916104ac565b820191906000526020600020905b81548152906001019060200180831161048f57829003601f168201915b5050505050905090565b60006104c182610d7b565b610500576040517f08c379a00000000000000000000000000000000000000000000000000000000081526004016104f790612279565b60405180910390fd5b6004600083815260200190815260200160002060009054906101000a900473ffffffffffffffffffffffffffffffffffffffff169050919050565b600061054682610737565b90508073ffffffffffffffffffffffffffffffffffffffff168373ffffffffffffffffffffffffffffffffffffffff1614156105b7576040517f08c379a00000000000000000000000000000000000000000000000000000000081526004016105ae906122d9565b60405180910390fd5b8073ffffffffffffffffffffffffffffffffffffffff166105d6610de7565b73ffffffffffffffffffffffffffffffffffffffff1614806106055750610604816105ff610de7565b610c7d565b5b610644576040517f08c379a000000000000000000000000000000000000000000000000000000000815260040161063b906121b9565b60405180910390fd5b61064e8383610def565b505050565b61066461065e610de7565b82610ea8565b6106a3576040517f08c379a000000000000000000000000000000000000000000000000000000000815260040161069a906122f9565b60405180910390fd5b6106ae838383610f86565b505050565b6106ce83838360405180602001604052806000815250610ac9565b505050565b60006106df60076111e2565b60006106eb60076111f8565b90506106f73382611206565b61070181846113d4565b61072e600860009054906101000a900473ffffffffffffffffffffffffffffffffffffffff166001610948565b80915050919050565b6000806002600084815260200190815260200160002060009054906101000a900473ffffffffffffffffffffffffffffffffffffffff169050600073ffffffffffffffffffffffffffffffffffffffff168173ffffffffffffffffffffffffffffffffffffffff1614156107e0576040517f08c379a00000000000000000000000000000000000000000000000000000000081526004016107d7906121f9565b60405180910390fd5b80915050919050565b60008073ffffffffffffffffffffffffffffffffffffffff168273ffffffffffffffffffffffffffffffffffffffff16141561085a576040517f08c379a0000000000000000000000000000000000000000000000000000000008152600401610851906121d9565b60405180910390fd5b600360008373ffffffffffffffffffffffffffffffffffffffff1673ffffffffffffffffffffffffffffffffffffffff168152602001908152602001600020549050919050565b6060600180546108b09061256f565b80601f01602080910402602001604051908101604052809291908181526020018280546108dc9061256f565b80156109295780601f106108fe57610100808354040283529160200191610929565b820191906000526020600020905b81548152906001019060200180831161090c57829003601f168201915b5050505050905090565b600061093f82846113d4565b81905092915050565b610950610de7565b73ffffffffffffffffffffffffffffffffffffffff168273ffffffffffffffffffffffffffffffffffffffff1614156109be576040517f08c379a00000000000000000000000000000000000000000000000000000000081526004016109b590612179565b60405180910390fd5b80600560006109cb610de7565b73ffffffffffffffffffffffffffffffffffffffff1673ffffffffffffffffffffffffffffffffffffffff16815260200190815260200160002060008473ffffffffffffffffffffffffffffffffffffffff1673ffffffffffffffffffffffffffffffffffffffff16815260200190815260200160002060006101000a81548160ff0219169083151502179055508173ffffffffffffffffffffffffffffffffffffffff16610a78610de7565b73ffffffffffffffffffffffffffffffffffffffff167f17307eab39ab6107e8899845ad3d59bd9653f200f220920489ca2b5937696c3183604051610abd91906120dc565b60405180910390a35050565b610ada610ad4610de7565b83610ea8565b610b19576040517f08c379a0000000000000000000000000000000000000000000000000000000008152600401610b10906122f9565b60405180910390fd5b610b2584848484611448565b50505050565b6060610b3682610d7b565b610b75576040517f08c379a0000000000000000000000000000000000000000000000000000000008152600401610b6c90612259565b60405180910390fd5b6000600660008481526020019081526020016000208054610b959061256f565b80601f0160208091040260200160405190810160405280929190818152602001828054610bc19061256f565b8015610c0e5780601f10610be357610100808354040283529160200191610c0e565b820191906000526020600020905b815481529060010190602001808311610bf157829003601f168201915b505050505090506000610c1f6114a4565b9050600081511415610c35578192505050610c78565b600082511115610c6a578082604051602001610c52929190612051565b60405160208183030381529060405292505050610c78565b610c73846114bb565b925050505b919050565b6000600560008473ffffffffffffffffffffffffffffffffffffffff1673ffffffffffffffffffffffffffffffffffffffff16815260200190815260200160002060008373ffffffffffffffffffffffffffffffffffffffff1673ffffffffffffffffffffffffffffffffffffffff16815260200190815260200160002060009054906101000a900460ff16905092915050565b60007f01ffc9a7000000000000000000000000000000000000000000000000000000007bffffffffffffffffffffffffffffffffffffffffffffffffffffffff1916827bffffffffffffffffffffffffffffffffffffffffffffffffffffffff1916149050919050565b60008073ffffffffffffffffffffffffffffffffffffffff166002600084815260200190815260200160002060009054906101000a900473ffffffffffffffffffffffffffffffffffffffff1673ffffffffffffffffffffffffffffffffffffffff1614159050919050565b600033905090565b816004600083815260200190815260200160002060006101000a81548173ffffffffffffffffffffffffffffffffffffffff021916908373ffffffffffffffffffffffffffffffffffffffff160217905550808273ffffffffffffffffffffffffffffffffffffffff16610e6283610737565b73ffffffffffffffffffffffffffffffffffffffff167f8c5be1e5ebec7d5bd14f71427d1e84f3dd0314c0f7b2291e5b200ac8c7c3b92560405160405180910390a45050565b6000610eb382610d7b565b610ef2576040517f08c379a0000000000000000000000000000000000000000000000000000000008152600401610ee990612199565b60405180910390fd5b6000610efd83610737565b90508073ffffffffffffffffffffffffffffffffffffffff168473ffffffffffffffffffffffffffffffffffffffff161480610f6c57508373ffffffffffffffffffffffffffffffffffffffff16610f54846104b6565b73ffffffffffffffffffffffffffffffffffffffff16145b80610f7d5750610f7c8185610c7d565b5b91505092915050565b8273ffffffffffffffffffffffffffffffffffffffff16610fa682610737565b73ffffffffffffffffffffffffffffffffffffffff1614610ffc576040517f08c379a0000000000000000000000000000000000000000000000000000000008152600401610ff390612299565b60405180910390fd5b600073ffffffffffffffffffffffffffffffffffffffff168273ffffffffffffffffffffffffffffffffffffffff16141561106c576040517f08c379a000000000000000000000000000000000000000000000000000000000815260040161106390612159565b60405180910390fd5b611077838383611562565b611082600082610def565b6001600360008573ffffffffffffffffffffffffffffffffffffffff1673ffffffffffffffffffffffffffffffffffffffff16815260200190815260200160002060008282546110d29190612485565b925050819055506001600360008473ffffffffffffffffffffffffffffffffffffffff1673ffffffffffffffffffffffffffffffffffffffff168152602001908152602001600020600082825461112991906123fe565b92505081905550816002600083815260200190815260200160002060006101000a81548173ffffffffffffffffffffffffffffffffffffffff021916908373ffffffffffffffffffffffffffffffffffffffff160217905550808273ffffffffffffffffffffffffffffffffffffffff168473ffffffffffffffffffffffffffffffffffffffff167fddf252ad1be2c89b69c2b068fc378daa952ba7f163c4a11628f55a4df523b3ef60405160405180910390a4505050565b6001816000016000828254019250508190555050565b600081600001549050919050565b600073ffffffffffffffffffffffffffffffffffffffff168273ffffffffffffffffffffffffffffffffffffffff161415611276576040517f08c379a000000000000000000000000000000000000000000000000000000000815260040161126d90612239565b60405180910390fd5b61127f81610d7b565b156112bf576040517f08c379a00000000000000000000000000000000000000000000000000000000081526004016112b690612139565b60405180910390fd5b6112cb60008383611562565b6001600360008473ffffffffffffffffffffffffffffffffffffffff1673ffffffffffffffffffffffffffffffffffffffff168152602001908152602001600020600082825461131b91906123fe565b92505081905550816002600083815260200190815260200160002060006101000a81548173ffffffffffffffffffffffffffffffffffffffff021916908373ffffffffffffffffffffffffffffffffffffffff160217905550808273ffffffffffffffffffffffffffffffffffffffff16600073ffffffffffffffffffffffffffffffffffffffff167fddf252ad1be2c89b69c2b068fc378daa952ba7f163c4a11628f55a4df523b3ef60405160405180910390a45050565b6113dd82610d7b565b61141c576040517f08c379a000000000000000000000000000000000000000000000000000000000815260040161141390612219565b60405180910390fd5b806006600084815260200190815260200160002090805190602001906114439291906118be565b505050565b611453848484610f86565b61145f84848484611567565b61149e576040517f08c379a000000000000000000000000000000000000000000000000000000000815260040161149590612119565b60405180910390fd5b50505050565b606060405180602001604052806000815250905090565b60606114c682610d7b565b611505576040517f08c379a00000000000000000000000000000000000000000000000000000000081526004016114fc906122b9565b60405180910390fd5b600061150f6114a4565b9050600081511161152f576040518060200160405280600081525061155a565b80611539846116fe565b60405160200161154a929190612051565b6040516020818303038152906040525b915050919050565b505050565b60006115888473ffffffffffffffffffffffffffffffffffffffff166118ab565b156116f1578373ffffffffffffffffffffffffffffffffffffffff1663150b7a026115b1610de7565b8786866040518563ffffffff1660e01b81526004016115d39493929190612090565b602060405180830381600087803b1580156115ed57600080fd5b505af192505050801561161e57506040513d601f19601f8201168201806040525081019061161b9190611c6a565b60015b6116a1573d806000811461164e576040519150601f19603f3d011682016040523d82523d6000602084013e611653565b606091505b50600081511415611699576040517f08c379a000000000000000000000000000000000000000000000000000000000815260040161169090612119565b60405180910390fd5b805181602001fd5b63150b7a0260e01b7bffffffffffffffffffffffffffffffffffffffffffffffffffffffff1916817bffffffffffffffffffffffffffffffffffffffffffffffffffffffff1916149150506116f6565b600190505b949350505050565b60606000821415611746576040518060400160405280600181526020017f300000000000000000000000000000000000000000000000000000000000000081525090506118a6565b600082905060005b60008214611778578080611761906125d2565b915050600a826117719190612454565b915061174e565b60008167ffffffffffffffff8111156117ba577f4e487b7100000000000000000000000000000000000000000000000000000000600052604160045260246000fd5b6040519080825280601f01601f1916602001820160405280156117ec5781602001600182028036833780820191505090505b5090505b6000851461189f576001826118059190612485565b9150600a85611814919061261b565b603061182091906123fe565b60f81b81838151811061185c577f4e487b7100000000000000000000000000000000000000000000000000000000600052603260045260246000fd5b60200101907effffffffffffffffffffffffffffffffffffffffffffffffffffffffffffff1916908160001a905350600a856118989190612454565b94506117f0565b8093505050505b919050565b600080823b905060008111915050919050565b8280546118ca9061256f565b90600052602060002090601f0160209004810192826118ec5760008555611933565b82601f1061190557805160ff1916838001178555611933565b82800160010185558215611933579182015b82811115611932578251825591602001919060010190611917565b5b5090506119409190611944565b5090565b5b8082111561195d576000816000905550600101611945565b5090565b600061197461196f84612359565b612334565b90508281526020810184848401111561198c57600080fd5b61199784828561252d565b509392505050565b60006119b26119ad8461238a565b612334565b9050828152602081018484840111156119ca57600080fd5b6119d584828561252d565b509392505050565b6000813590506119ec81612b97565b92915050565b600081359050611a0181612bae565b92915050565b600081359050611a1681612bc5565b92915050565b600081519050611a2b81612bc5565b92915050565b600082601f830112611a4257600080fd5b8135611a52848260208601611961565b91505092915050565b600082601f830112611a6c57600080fd5b8135611a7c84826020860161199f565b91505092915050565b600081359050611a9481612bdc565b92915050565b600060208284031215611aac57600080fd5b6000611aba848285016119dd565b91505092915050565b60008060408385031215611ad657600080fd5b6000611ae4858286016119dd565b9250506020611af5858286016119dd565b9150509250929050565b600080600060608486031215611b1457600080fd5b6000611b22868287016119dd565b9350506020611b33868287016119dd565b9250506040611b4486828701611a85565b9150509250925092565b60008060008060808587031215611b6457600080fd5b6000611b72878288016119dd565b9450506020611b83878288016119dd565b9350506040611b9487828801611a85565b925050606085013567ffffffffffffffff811115611bb157600080fd5b611bbd87828801611a31565b91505092959194509250565b60008060408385031215611bdc57600080fd5b6000611bea858286016119dd565b9250506020611bfb858286016119f2565b9150509250929050565b60008060408385031215611c1857600080fd5b6000611c26858286016119dd565b9250506020611c3785828601611a85565b9150509250929050565b600060208284031215611c5357600080fd5b6000611c6184828501611a07565b91505092915050565b600060208284031215611c7c57600080fd5b6000611c8a84828501611a1c565b91505092915050565b600060208284031215611ca557600080fd5b600082013567ffffffffffffffff811115611cbf57600080fd5b611ccb84828501611a5b565b91505092915050565b60008060408385031215611ce757600080fd5b600083013567ffffffffffffffff811115611d0157600080fd5b611d0d85828601611a5b565b9250506020611d1e85828601611a85565b9150509250929050565b600060208284031215611d3a57600080fd5b6000611d4884828501611a85565b91505092915050565b611d5a816124b9565b82525050565b611d69816124cb565b82525050565b6000611d7a826123bb565b611d8481856123d1565b9350611d9481856020860161253c565b611d9d81612708565b840191505092915050565b6000611db3826123c6565b611dbd81856123e2565b9350611dcd81856020860161253c565b611dd681612708565b840191505092915050565b6000611dec826123c6565b611df681856123f3565b9350611e0681856020860161253c565b80840191505092915050565b6000611e1f6032836123e2565b9150611e2a82612719565b604082019050919050565b6000611e42601c836123e2565b9150611e4d82612768565b602082019050919050565b6000611e656024836123e2565b9150611e7082612791565b604082019050919050565b6000611e886019836123e2565b9150611e93826127e0565b602082019050919050565b6000611eab602c836123e2565b9150611eb682612809565b604082019050919050565b6000611ece6038836123e2565b9150611ed982612858565b604082019050919050565b6000611ef1602a836123e2565b9150611efc826128a7565b604082019050919050565b6000611f146029836123e2565b9150611f1f826128f6565b604082019050919050565b6000611f37602e836123e2565b9150611f4282612945565b604082019050919050565b6000611f5a6020836123e2565b9150611f6582612994565b602082019050919050565b6000611f7d6031836123e2565b9150611f88826129bd565b604082019050919050565b6000611fa0602c836123e2565b9150611fab82612a0c565b604082019050919050565b6000611fc36029836123e2565b9150611fce82612a5b565b604082019050919050565b6000611fe6602f836123e2565b9150611ff182612aaa565b604082019050919050565b60006120096021836123e2565b915061201482612af9565b604082019050919050565b600061202c6031836123e2565b915061203782612b48565b604082019050919050565b61204b81612523565b82525050565b600061205d8285611de1565b91506120698284611de1565b91508190509392505050565b600060208201905061208a6000830184611d51565b92915050565b60006080820190506120a56000830187611d51565b6120b26020830186611d51565b6120bf6040830185612042565b81810360608301526120d18184611d6f565b905095945050505050565b60006020820190506120f16000830184611d60565b92915050565b600060208201905081810360008301526121118184611da8565b905092915050565b6000602082019050818103600083015261213281611e12565b9050919050565b6000602082019050818103600083015261215281611e35565b9050919050565b6000602082019050818103600083015261217281611e58565b9050919050565b6000602082019050818103600083015261219281611e7b565b9050919050565b600060208201905081810360008301526121b281611e9e565b9050919050565b600060208201905081810360008301526121d281611ec1565b9050919050565b600060208201905081810360008301526121f281611ee4565b9050919050565b6000602082019050818103600083015261221281611f07565b9050919050565b6000602082019050818103600083015261223281611f2a565b9050919050565b6000602082019050818103600083015261225281611f4d565b9050919050565b6000602082019050818103600083015261227281611f70565b9050919050565b6000602082019050818103600083015261229281611f93565b9050919050565b600060208201905081810360008301526122b281611fb6565b9050919050565b600060208201905081810360008301526122d281611fd9565b9050919050565b600060208201905081810360008301526122f281611ffc565b9050919050565b600060208201905081810360008301526123128161201f565b9050919050565b600060208201905061232e6000830184612042565b92915050565b600061233e61234f565b905061234a82826125a1565b919050565b6000604051905090565b600067ffffffffffffffff821115612374576123736126d9565b5b61237d82612708565b9050602081019050919050565b600067ffffffffffffffff8211156123a5576123a46126d9565b5b6123ae82612708565b9050602081019050919050565b600081519050919050565b600081519050919050565b600082825260208201905092915050565b600082825260208201905092915050565b600081905092915050565b600061240982612523565b915061241483612523565b9250827fffffffffffffffffffffffffffffffffffffffffffffffffffffffffffffffff038211156124495761244861264c565b5b828201905092915050565b600061245f82612523565b915061246a83612523565b92508261247a5761247961267b565b5b828204905092915050565b600061249082612523565b915061249b83612523565b9250828210156124ae576124ad61264c565b5b828203905092915050565b60006124c482612503565b9050919050565b60008115159050919050565b60007fffffffff0000000000000000000000000000000000000000000000000000000082169050919050565b600073ffffffffffffffffffffffffffffffffffffffff82169050919050565b6000819050919050565b82818337600083830152505050565b60005b8381101561255a57808201518184015260208101905061253f565b83811115612569576000848401525b50505050565b6000600282049050600182168061258757607f821691505b6020821081141561259b5761259a6126aa565b5b50919050565b6125aa82612708565b810181811067ffffffffffffffff821117156125c9576125c86126d9565b5b80604052505050565b60006125dd82612523565b91507fffffffffffffffffffffffffffffffffffffffffffffffffffffffffffffffff8214156126105761260f61264c565b5b600182019050919050565b600061262682612523565b915061263183612523565b9250826126415761264061267b565b5b828206905092915050565b7f4e487b7100000000000000000000000000000000000000000000000000000000600052601160045260246000fd5b7f4e487b7100000000000000000000000000000000000000000000000000000000600052601260045260246000fd5b7f4e487b7100000000000000000000000000000000000000000000000000000000600052602260045260246000fd5b7f4e487b7100000000000000000000000000000000000000000000000000000000600052604160045260246000fd5b6000601f19601f8301169050919050565b7f4552433732313a207472616e7366657220746f206e6f6e20455243373231526560008201527f63656976657220696d706c656d656e7465720000000000000000000000000000602082015250565b7f4552433732313a20746f6b656e20616c7265616479206d696e74656400000000600082015250565b7f4552433732313a207472616e7366657220746f20746865207a65726f2061646460008201527f7265737300000000000000000000000000000000000000000000000000000000602082015250565b7f4552433732313a20617070726f766520746f2063616c6c657200000000000000600082015250565b7f4552433732313a206f70657261746f7220717565727920666f72206e6f6e657860008201527f697374656e7420746f6b656e0000000000000000000000000000000000000000602082015250565b7f4552433732313a20617070726f76652063616c6c6572206973206e6f74206f7760008201527f6e6572206e6f7220617070726f76656420666f7220616c6c0000000000000000602082015250565b7f4552433732313a2062616c616e636520717565727920666f7220746865207a6560008201527f726f206164647265737300000000000000000000000000000000000000000000602082015250565b7f4552433732313a206f776e657220717565727920666f72206e6f6e657869737460008201527f656e7420746f6b656e0000000000000000000000000000000000000000000000602082015250565b7f45524337323155524953746f726167653a2055524920736574206f66206e6f6e60008201527f6578697374656e7420746f6b656e000000000000000000000000000000000000602082015250565b7f4552433732313a206d696e7420746f20746865207a65726f2061646472657373600082015250565b7f45524337323155524953746f726167653a2055524920717565727920666f722060008201527f6e6f6e6578697374656e7420746f6b656e000000000000000000000000000000602082015250565b7f4552433732313a20617070726f76656420717565727920666f72206e6f6e657860008201527f697374656e7420746f6b656e0000000000000000000000000000000000000000602082015250565b7f4552433732313a207472616e73666572206f6620746f6b656e2074686174206960008201527f73206e6f74206f776e0000000000000000000000000000000000000000000000602082015250565b7f4552433732314d657461646174613a2055524920717565727920666f72206e6f60008201527f6e6578697374656e7420746f6b656e0000000000000000000000000000000000602082015250565b7f4552433732313a20617070726f76616c20746f2063757272656e74206f776e6560008201527f7200000000000000000000000000000000000000000000000000000000000000602082015250565b7f4552433732313a207472616e736665722063616c6c6572206973206e6f74206f60008201527f776e6572206e6f7220617070726f766564000000000000000000000000000000602082015250565b612ba0816124b9565b8114612bab57600080fd5b50565b612bb7816124cb565b8114612bc257600080fd5b50565b612bce816124d7565b8114612bd957600080fd5b50565b612be581612523565b8114612bf057600080fd5b5056fea264697066735822122074d9fb34c89ec05b1eb85edbca22fc844141db7e7c4625f10c575e1c286ca2d164736f6c63430008040033",
  "linkReferences": {},
  "deployedLinkReferences": {}
}