{
  "_format": "hh-sol-artifact-1",
  "contractName": "NFTMarket",
  "sourceName": "contracts/Market.sol",
  "abi": [
    {
      "inputs": [],
      "stateMutability": "nonpayable",
      "type": "constructor"
    },
    {
      "anonymous": false,
      "inputs": [
        {
          "indexed": true,
          "internalType": "uint256",
          "name": "itemId",
          "type": "uint256"
        },
        {
          "indexed": true,
          "internalType": "address",
          "name": "nftContract",
          "type": "address"
        },
        {
          "indexed": true,
          "internalType": "uint256",
          "name": "tokenId",
          "type": "uint256"
        },
        {
          "indexed": false,
          "internalType": "address",
          "name": "seller",
          "type": "address"
        },
        {
          "indexed": false,
          "internalType": "address",
          "name": "owner",
          "type": "address"
        },
        {
          "indexed": false,
          "internalType": "uint256",
          "name": "price",
          "type": "uint256"
        },
        {
          "indexed": false,
          "internalType": "bool",
          "name": "sold",
          "type": "bool"
        },
        {
          "indexed": false,
          "internalType": "address",
          "name": "originalCreator",
          "type": "address"
        }
      ],
      "name": "MarketItemCreated",
      "type": "event"
    },
    {
      "inputs": [
        {
          "internalType": "address",
          "name": "nftContract",
          "type": "address"
        },
        {
          "internalType": "uint256",
          "name": "tokenId",
          "type": "uint256"
        },
        {
          "internalType": "uint256",
          "name": "price",
          "type": "uint256"
        },
        {
          "internalType": "address",
          "name": "originalCreator",
          "type": "address"
        }
      ],
      "name": "createMarketItem",
      "outputs": [],
      "stateMutability": "payable",
      "type": "function"
    },
    {
      "inputs": [
        {
          "internalType": "address",
          "name": "nftContract",
          "type": "address"
        },
        {
          "internalType": "uint256",
          "name": "itemId",
          "type": "uint256"
        },
        {
          "internalType": "uint256",
          "name": "royaltyAmount",
          "type": "uint256"
        },
        {
          "internalType": "uint256",
          "name": "amountForSeller",
          "type": "uint256"
        },
        {
          "internalType": "uint256",
          "name": "ownerAmount",
          "type": "uint256"
        }
      ],
      "name": "createMarketSale",
      "outputs": [],
      "stateMutability": "payable",
      "type": "function"
    },
    {
      "inputs": [],
      "name": "fetchItemsCreated",
      "outputs": [
        {
          "components": [
            {
              "internalType": "uint256",
              "name": "itemId",
              "type": "uint256"
            },
            {
              "internalType": "address",
              "name": "nftContract",
              "type": "address"
            },
            {
              "internalType": "uint256",
              "name": "tokenId",
              "type": "uint256"
            },
            {
              "internalType": "address payable",
              "name": "seller",
              "type": "address"
            },
            {
              "internalType": "address payable",
              "name": "owner",
              "type": "address"
            },
            {
              "internalType": "uint256",
              "name": "price",
              "type": "uint256"
            },
            {
              "internalType": "bool",
              "name": "sold",
              "type": "bool"
            },
            {
              "internalType": "address payable",
              "name": "originalCreator",
              "type": "address"
            }
          ],
          "internalType": "struct NFTMarket.MarketItem[]",
          "name": "",
          "type": "tuple[]"
        }
      ],
      "stateMutability": "view",
      "type": "function"
    },
    {
      "inputs": [],
      "name": "fetchMarketItems",
      "outputs": [
        {
          "components": [
            {
              "internalType": "uint256",
              "name": "itemId",
              "type": "uint256"
            },
            {
              "internalType": "address",
              "name": "nftContract",
              "type": "address"
            },
            {
              "internalType": "uint256",
              "name": "tokenId",
              "type": "uint256"
            },
            {
              "internalType": "address payable",
              "name": "seller",
              "type": "address"
            },
            {
              "internalType": "address payable",
              "name": "owner",
              "type": "address"
            },
            {
              "internalType": "uint256",
              "name": "price",
              "type": "uint256"
            },
            {
              "internalType": "bool",
              "name": "sold",
              "type": "bool"
            },
            {
              "internalType": "address payable",
              "name": "originalCreator",
              "type": "address"
            }
          ],
          "internalType": "struct NFTMarket.MarketItem[]",
          "name": "",
          "type": "tuple[]"
        }
      ],
      "stateMutability": "view",
      "type": "function"
    },
    {
      "inputs": [],
      "name": "fetchMyNFTs",
      "outputs": [
        {
          "components": [
            {
              "internalType": "uint256",
              "name": "itemId",
              "type": "uint256"
            },
            {
              "internalType": "address",
              "name": "nftContract",
              "type": "address"
            },
            {
              "internalType": "uint256",
              "name": "tokenId",
              "type": "uint256"
            },
            {
              "internalType": "address payable",
              "name": "seller",
              "type": "address"
            },
            {
              "internalType": "address payable",
              "name": "owner",
              "type": "address"
            },
            {
              "internalType": "uint256",
              "name": "price",
              "type": "uint256"
            },
            {
              "internalType": "bool",
              "name": "sold",
              "type": "bool"
            },
            {
              "internalType": "address payable",
              "name": "originalCreator",
              "type": "address"
            }
          ],
          "internalType": "struct NFTMarket.MarketItem[]",
          "name": "",
          "type": "tuple[]"
        }
      ],
      "stateMutability": "view",
      "type": "function"
    }
  ],
  "bytecode": "0x608060405234801561001057600080fd5b50600160008190555033600360006101000a81548173ffffffffffffffffffffffffffffffffffffffff021916908373ffffffffffffffffffffffffffffffffffffffff160217905550611a7e806100696000396000f3fe60806040526004361061004a5760003560e01c80630f08efe01461004f578063202e37401461007a578063945662bf146100a5578063b37654a7146100c1578063f064c32e146100dd575b600080fd5b34801561005b57600080fd5b50610064610108565b6040516100719190611751565b60405180910390f35b34801561008657600080fd5b5061008f610475565b60405161009c9190611751565b60405180910390f35b6100bf60048036038101906100ba9190611465565b610866565b005b6100db60048036038101906100d69190611402565b610b9d565b005b3480156100e957600080fd5b506100f2610f24565b6040516100ff9190611751565b60405180910390f35b606060006101166001611315565b905060006101246002611315565b61012e6001611315565b6101389190611873565b90506000808267ffffffffffffffff81111561017d577f4e487b7100000000000000000000000000000000000000000000000000000000600052604160045260246000fd5b6040519080825280602002602001820160405280156101b657816020015b6101a3611339565b81526020019060019003908161019b5790505b50905060005b8481101561046a57600073ffffffffffffffffffffffffffffffffffffffff16600460006001846101ed919061181d565b815260200190815260200160002060040160009054906101000a900473ffffffffffffffffffffffffffffffffffffffff1673ffffffffffffffffffffffffffffffffffffffff16141561045757600060018261024a919061181d565b905060006004600083815260200190815260200160002090508060405180610100016040529081600082015481526020016001820160009054906101000a900473ffffffffffffffffffffffffffffffffffffffff1673ffffffffffffffffffffffffffffffffffffffff1673ffffffffffffffffffffffffffffffffffffffff168152602001600282015481526020016003820160009054906101000a900473ffffffffffffffffffffffffffffffffffffffff1673ffffffffffffffffffffffffffffffffffffffff1673ffffffffffffffffffffffffffffffffffffffff1681526020016004820160009054906101000a900473ffffffffffffffffffffffffffffffffffffffff1673ffffffffffffffffffffffffffffffffffffffff1673ffffffffffffffffffffffffffffffffffffffff168152602001600582015481526020016006820160009054906101000a900460ff161515151581526020016006820160019054906101000a900473ffffffffffffffffffffffffffffffffffffffff1673ffffffffffffffffffffffffffffffffffffffff1673ffffffffffffffffffffffffffffffffffffffff168152505084868151811061043a577f4e487b7100000000000000000000000000000000000000000000000000000000600052603260045260246000fd5b6020026020010181905250600185610452919061181d565b945050505b808061046290611901565b9150506101bc565b508094505050505090565b606060006104836001611315565b905060008060005b8381101561052c573373ffffffffffffffffffffffffffffffffffffffff16600460006001846104bb919061181d565b815260200190815260200160002060040160009054906101000a900473ffffffffffffffffffffffffffffffffffffffff1673ffffffffffffffffffffffffffffffffffffffff16141561051957600183610516919061181d565b92505b808061052490611901565b91505061048b565b5060008267ffffffffffffffff81111561056f577f4e487b7100000000000000000000000000000000000000000000000000000000600052604160045260246000fd5b6040519080825280602002602001820160405280156105a857816020015b610595611339565b81526020019060019003908161058d5790505b50905060005b8481101561085b573373ffffffffffffffffffffffffffffffffffffffff16600460006001846105de919061181d565b815260200190815260200160002060040160009054906101000a900473ffffffffffffffffffffffffffffffffffffffff1673ffffffffffffffffffffffffffffffffffffffff16141561084857600060018261063b919061181d565b905060006004600083815260200190815260200160002090508060405180610100016040529081600082015481526020016001820160009054906101000a900473ffffffffffffffffffffffffffffffffffffffff1673ffffffffffffffffffffffffffffffffffffffff1673ffffffffffffffffffffffffffffffffffffffff168152602001600282015481526020016003820160009054906101000a900473ffffffffffffffffffffffffffffffffffffffff1673ffffffffffffffffffffffffffffffffffffffff1673ffffffffffffffffffffffffffffffffffffffff1681526020016004820160009054906101000a900473ffffffffffffffffffffffffffffffffffffffff1673ffffffffffffffffffffffffffffffffffffffff1673ffffffffffffffffffffffffffffffffffffffff168152602001600582015481526020016006820160009054906101000a900460ff161515151581526020016006820160019054906101000a900473ffffffffffffffffffffffffffffffffffffffff1673ffffffffffffffffffffffffffffffffffffffff1673ffffffffffffffffffffffffffffffffffffffff168152505084868151811061082b577f4e487b7100000000000000000000000000000000000000000000000000000000600052603260045260246000fd5b6020026020010181905250600185610843919061181d565b945050505b808061085390611901565b9150506105ae565b508094505050505090565b600260005414156108ac576040517f08c379a00000000000000000000000000000000000000000000000000000000081526004016108a390611793565b60405180910390fd5b600260008190555060006004600086815260200190815260200160002060050154905060006004600087815260200190815260200160002060020154905081341461092c576040517f08c379a000000000000000000000000000000000000000000000000000000000815260040161092390611773565b60405180910390fd5b6004600087815260200190815260200160002060060160019054906101000a900473ffffffffffffffffffffffffffffffffffffffff1673ffffffffffffffffffffffffffffffffffffffff166108fc869081150290604051600060405180830381858888f193505050501580156109a8573d6000803e3d6000fd5b506004600087815260200190815260200160002060030160009054906101000a900473ffffffffffffffffffffffffffffffffffffffff1673ffffffffffffffffffffffffffffffffffffffff166108fc859081150290604051600060405180830381858888f19350505050158015610a25573d6000803e3d6000fd5b508673ffffffffffffffffffffffffffffffffffffffff166323b872dd3033846040518463ffffffff1660e01b8152600401610a63939291906116c7565b600060405180830381600087803b158015610a7d57600080fd5b505af1158015610a91573d6000803e3d6000fd5b50505050336004600088815260200190815260200160002060040160006101000a81548173ffffffffffffffffffffffffffffffffffffffff021916908373ffffffffffffffffffffffffffffffffffffffff16021790555060016004600088815260200190815260200160002060060160006101000a81548160ff021916908315150217905550610b236002611323565b600360009054906101000a900473ffffffffffffffffffffffffffffffffffffffff1673ffffffffffffffffffffffffffffffffffffffff166108fc849081150290604051600060405180830381858888f19350505050158015610b8b573d6000803e3d6000fd5b50505060016000819055505050505050565b60026000541415610be3576040517f08c379a0000000000000000000000000000000000000000000000000000000008152600401610bda90611793565b60405180910390fd5b600260008190555060008211610c2e576040517f08c379a0000000000000000000000000000000000000000000000000000000008152600401610c25906117b3565b60405180910390fd5b610c386001611323565b6000610c446001611315565b90506040518061010001604052808281526020018673ffffffffffffffffffffffffffffffffffffffff1681526020018581526020013373ffffffffffffffffffffffffffffffffffffffff168152602001600073ffffffffffffffffffffffffffffffffffffffff1681526020018481526020016000151581526020018373ffffffffffffffffffffffffffffffffffffffff16815250600460008381526020019081526020016000206000820151816000015560208201518160010160006101000a81548173ffffffffffffffffffffffffffffffffffffffff021916908373ffffffffffffffffffffffffffffffffffffffff1602179055506040820151816002015560608201518160030160006101000a81548173ffffffffffffffffffffffffffffffffffffffff021916908373ffffffffffffffffffffffffffffffffffffffff16021790555060808201518160040160006101000a81548173ffffffffffffffffffffffffffffffffffffffff021916908373ffffffffffffffffffffffffffffffffffffffff16021790555060a0820151816005015560c08201518160060160006101000a81548160ff02191690831515021790555060e08201518160060160016101000a81548173ffffffffffffffffffffffffffffffffffffffff021916908373ffffffffffffffffffffffffffffffffffffffff1602179055509050508473ffffffffffffffffffffffffffffffffffffffff166323b872dd3330876040518463ffffffff1660e01b8152600401610e89939291906116c7565b600060405180830381600087803b158015610ea357600080fd5b505af1158015610eb7573d6000803e3d6000fd5b50505050838573ffffffffffffffffffffffffffffffffffffffff16827f7d97da72e950426bedd7ad7228ffd65fade59107955150507e9495a8f1b39aa833600088600089604051610f0d9594939291906116fe565b60405180910390a450600160008190555050505050565b60606000610f326001611315565b905060008060005b83811015610fdb573373ffffffffffffffffffffffffffffffffffffffff1660046000600184610f6a919061181d565b815260200190815260200160002060030160009054906101000a900473ffffffffffffffffffffffffffffffffffffffff1673ffffffffffffffffffffffffffffffffffffffff161415610fc857600183610fc5919061181d565b92505b8080610fd390611901565b915050610f3a565b5060008267ffffffffffffffff81111561101e577f4e487b7100000000000000000000000000000000000000000000000000000000600052604160045260246000fd5b60405190808252806020026020018201604052801561105757816020015b611044611339565b81526020019060019003908161103c5790505b50905060005b8481101561130a573373ffffffffffffffffffffffffffffffffffffffff166004600060018461108d919061181d565b815260200190815260200160002060030160009054906101000a900473ffffffffffffffffffffffffffffffffffffffff1673ffffffffffffffffffffffffffffffffffffffff1614156112f75760006001826110ea919061181d565b905060006004600083815260200190815260200160002090508060405180610100016040529081600082015481526020016001820160009054906101000a900473ffffffffffffffffffffffffffffffffffffffff1673ffffffffffffffffffffffffffffffffffffffff1673ffffffffffffffffffffffffffffffffffffffff168152602001600282015481526020016003820160009054906101000a900473ffffffffffffffffffffffffffffffffffffffff1673ffffffffffffffffffffffffffffffffffffffff1673ffffffffffffffffffffffffffffffffffffffff1681526020016004820160009054906101000a900473ffffffffffffffffffffffffffffffffffffffff1673ffffffffffffffffffffffffffffffffffffffff1673ffffffffffffffffffffffffffffffffffffffff168152602001600582015481526020016006820160009054906101000a900460ff161515151581526020016006820160019054906101000a900473ffffffffffffffffffffffffffffffffffffffff1673ffffffffffffffffffffffffffffffffffffffff1673ffffffffffffffffffffffffffffffffffffffff16815250508486815181106112da577f4e487b7100000000000000000000000000000000000000000000000000000000600052603260045260246000fd5b60200260200101819052506001856112f2919061181d565b945050505b808061130290611901565b91505061105d565b508094505050505090565b600081600001549050919050565b6001816000016000828254019250508190555050565b60405180610100016040528060008152602001600073ffffffffffffffffffffffffffffffffffffffff16815260200160008152602001600073ffffffffffffffffffffffffffffffffffffffff168152602001600073ffffffffffffffffffffffffffffffffffffffff16815260200160008152602001600015158152602001600073ffffffffffffffffffffffffffffffffffffffff1681525090565b6000813590506113e781611a1a565b92915050565b6000813590506113fc81611a31565b92915050565b6000806000806080858703121561141857600080fd5b6000611426878288016113d8565b9450506020611437878288016113ed565b9350506040611448878288016113ed565b9250506060611459878288016113d8565b91505092959194509250565b600080600080600060a0868803121561147d57600080fd5b600061148b888289016113d8565b955050602061149c888289016113ed565b94505060406114ad888289016113ed565b93505060606114be888289016113ed565b92505060806114cf888289016113ed565b9150509295509295909350565b60006114e88383611607565b6101008301905092915050565b6114fe816118b9565b82525050565b61150d816118a7565b82525050565b61151c816118a7565b82525050565b600061152d826117e3565b61153781856117fb565b9350611542836117d3565b8060005b8381101561157357815161155a88826114dc565b9750611565836117ee565b925050600181019050611546565b5085935050505092915050565b611589816118cb565b82525050565b611598816118cb565b82525050565b60006115ab60408361180c565b91506115b682611979565b604082019050919050565b60006115ce601f8361180c565b91506115d9826119c8565b602082019050919050565b60006115f1601c8361180c565b91506115fc826119f1565b602082019050919050565b6101008201600082015161161e60008501826116a9565b5060208201516116316020850182611504565b50604082015161164460408501826116a9565b50606082015161165760608501826114f5565b50608082015161166a60808501826114f5565b5060a082015161167d60a08501826116a9565b5060c082015161169060c0850182611580565b5060e08201516116a360e08501826114f5565b50505050565b6116b2816118f7565b82525050565b6116c1816118f7565b82525050565b60006060820190506116dc6000830186611513565b6116e96020830185611513565b6116f660408301846116b8565b949350505050565b600060a0820190506117136000830188611513565b6117206020830187611513565b61172d60408301866116b8565b61173a606083018561158f565b6117476080830184611513565b9695505050505050565b6000602082019050818103600083015261176b8184611522565b905092915050565b6000602082019050818103600083015261178c8161159e565b9050919050565b600060208201905081810360008301526117ac816115c1565b9050919050565b600060208201905081810360008301526117cc816115e4565b9050919050565b6000819050602082019050919050565b600081519050919050565b6000602082019050919050565b600082825260208201905092915050565b600082825260208201905092915050565b6000611828826118f7565b9150611833836118f7565b9250827fffffffffffffffffffffffffffffffffffffffffffffffffffffffffffffffff038211156118685761186761194a565b5b828201905092915050565b600061187e826118f7565b9150611889836118f7565b92508282101561189c5761189b61194a565b5b828203905092915050565b60006118b2826118d7565b9050919050565b60006118c4826118d7565b9050919050565b60008115159050919050565b600073ffffffffffffffffffffffffffffffffffffffff82169050919050565b6000819050919050565b600061190c826118f7565b91507fffffffffffffffffffffffffffffffffffffffffffffffffffffffffffffffff82141561193f5761193e61194a565b5b600182019050919050565b7f4e487b7100000000000000000000000000000000000000000000000000000000600052601160045260246000fd5b7f506c65617365207375626d6974207468652061736b696e67207072696365206960008201527f6e206f7264657220746f20636f6d706c65746520746865207075726368617365602082015250565b7f5265656e7472616e637947756172643a207265656e7472616e742063616c6c00600082015250565b7f5072696365206d757374206265206174206c6561737420312077656900000000600082015250565b611a23816118a7565b8114611a2e57600080fd5b50565b611a3a816118f7565b8114611a4557600080fd5b5056fea264697066735822122024c272f307f2bdcba3046cf9d0b3eec0ab439ca51eebb20c1f2343b4b47bec1c64736f6c63430008040033",
  "linkReferences": {},
  "deployedLinkReferences": {}
}